:100000000C94AC090C94D4090C94D4090C94B71733
:100010000C945D180C9439180C94D4090C94D409E0
:100020000C94D4090C94D4090C94D4090C94D409DC
:100030000C94D4090C94D4090C94D4090C94D409CC
:100040000C946D170C94D4090C943B170C94151751
:100050000C94D4090C94D4090C94D4090C94D409AC
:100060000C94D4090C94D40905A84CCDB2D44EB943
:100070003836A9020C50B9918688083CA6AAAA2A4B
:10008000BE000000803F00407A10F35A00A0724E7C
:1000900018090010A5D4E80000E87648170000E42D
:1000A0000B54020000CA9A3B000000E1F505000075
:1000B00080969800000040420F000000A0860100DA
:1000C0000000102700000000E803000000006400AA
:1000D000000000000A000000000001000000000015
:1000E0002C76D888DC674F0823DFC1DFAE59E1B139
:1000F000B796E5E3E453C63AE651997696E8E6C248
:100100008426EB898C9B62ED407C6FFCEFBC9C9F4E
:1001100040F2BAA56FA5F490055A2AF75C936B6C70
:10012000F9676DC11BFCE0E40D47FEF520E6B50064
:10013000D0ED902E0300943577050080841E0800D2
:1001400000204E0A000000C80C333333330F986E82
:1001500012831141EF8D2114893BE65516CFFEE63F
:10016000DB18D1844B381BF77C1D901DA4BBE42405
:10017000203284725E228100C9F124ECA1E53D2782
:10018000FFE0FFD1AFFF32FFD0FFFEFFE0FFD1AEB7
:10019000FFD0FFFEFFE0FFD11000FFFEFFD0FFE029
:1001A000FFC1FFD1AED580A83FD300408D14200001
:1001B000A1C8DA1281CFD9F1DB402EA4A6AFFFD0BF
:1001C000FFFE00000000240027002A0000000008B5
:1001D000000201000003040700000000000000000E
:1001E000000000000000000000000000000000000F
:1001F00000000000000000000000000000000000FF
:1002000000000000000000000000000000000000EE
:1002100000000000000000000000000000000000DE
:1002200000000000000000000000000000000000CE
:1002300000000000000000000000000000000000BE
:100240000000000000000000000000186000000036
:10025000000000000000000701C00018600000005E
:10026000000000000000000701C00018600000004E
:10027000003FFFFFFFFF800701C000186000000083
:1002800001FFFFFFFFFFF00701C000186000000042
:1002900003FFFFFFFFFFF00701C0F818607E0000BA
:1002A00007FFFFFFFFFFF00701C1FE1860FF00001E
:1002B00007FFFFFFFFFFF00701C3871861C380003E
:1002C0000FFFFFFFFFFFF007FFC303186181C000AE
:1002D0000FFFFFFFFFFFF007FFC703186381C00098
:1002E0000FFFFFFFFFFFF00701C7FF186380C0008B
:1002F0000FFFFFFFFFFFF00701C7FF186380C0007B
:100300000FFFFFFFFFFFF00701C700186380C00069
:100310000FFFFFFFFFFFF00701C700186381C00058
:100320000FFF80000000000701C300186181C000BA
:100330000FFFF0000000000701C3831861C38000B5
:100340000FFFFF800000000701C1FF1860FF0000E1
:100350000FFFFFFE0000000701C0FC18607E0000D8
:1003600007FFFFFFF8000000000000000000000091
:10037000003FFFFFFFC00000000000000000000081
:100380000000FFFFFFFE0000000000000000000072
:100390000F0003FFFFFFF00000000000000000005E
:1003A0000FF8000FFFFFF000000000000000000049
:1003B0000FFFE0003FFFF000000000000000000021
:1003C0000FFFFF0000FFF000000000000000000031
:1003D0000FFFFFF80007F000000000000000000021
:1003E0000FFFFFFFE0001000000000000000000011
:1003F000007FFFFFFF000000000000000000000081
:100400000001FFFFFFFC00000000000000000000F2
:1004100000000FFFFFFFE0000000000000000000F0
:100420000000003FFFFFF00000000000000000009F
:1004300000000000FFFFF0000000000000000000CE
:100440000000000001FFF0000000000000000000BC
:100450000F00000003FFF0000001860000006000B4
:100460000FFFFFFFFFFFF0007E01C60000006000ED
:100470000FFFFFFFFFFFF001FF818600000060001B
:100480000FFFFFFFFFFFF003C3C006000000600086
:100490000FFFFFFFFFFFF00700E006000000600015
:1004A0000FFFFFFFFFFFF00700E1860C60606000B8
:1004B0000FFFFFFFFFFFF0060061861C6060600019
:1004C0000FFFFFFFFFFFF00E0071863860606000D5
:1004D0000FFFFFFFFFFFF00E00718670606060008D
:1004E0000FFFFFFFFFFFE00E007186E0606060001D
:1004F00007FFFFFFFFFFC00E007187C06060600054
:1005000007FFFFFFFFFF000E006187C06060600013
:1005100000001FFFFE000006006186E060606000D2
:10052000000000000000000700E18670606000002D
:10053000000000000000000700E1863860E00000D5
:10054000000000000000000383C1861871E0600015
:100550000000000000000001FFC1861C3FE0E00039
:100560000000000000000000FEF1860E1E6060002A
:100570000000000000000000003C0000000000003F
:100580000000000000000000000C0000000000005F
:10059000000000000000000000000000000000005B
:1005A000000000000000000000000000000000004B
:1005B000000000000000000000000000000000003B
:1005C000000000000000000000000000000000002B
:1005D000000000000000000000000000000000001B
:1005E0002D2D2D4B575053656E6441636B426C6FDC
:1005F000636B20626C6F636B436F756E7465723DE5
:10060000004552524F523A20756E6578706563749A
:10061000656420616E73776572002D2D2D2D2D2D53
:1006200072656164636F6E6E656374626C6F636B39
:1006300073002073746F7062697400207061726956
:10064000747900207374617274626974003D006291
:100650006974002D2D2D4B57502035206261756433
:1006600020696E69740000C20100010011001100D0
:100670000C0000E100000A00250025002100009682
:1006800000001900390039003600127A00001F00FE
:100690004600460044008070000022004D004D00DE
:1006A0004A00004B000036007500750072004038AB
:1006B00000004A009C009C009900A02800006A00ED
:1006C000DA00DA00D700802500007200EC00EC00B0
:1006D000E900C0120000E900DA01DA01D70160097F
:1006E0000000D701B603B603B303B0040000B303A0
:1006F0006E076E076B07580200006E07DC0EDC0EFB
:10070000D80E2C010000DC0EC11DC11DBE1D4552BE
:10071000524F523A20696E76616C6964206D616750
:1007200069630020626175643D002D2D2D2D2D2DF6
:10073000636F6E6E65637420616464723D00630074
:100740002020746578743D002020623D00202061E7
:100750003D00747970653D000000537465657269F1
:100760006E672C4169726261672C5B4E2F415D2C74
:100770005B4E2F415D00456E67696E652C5472615A
:100780006E736D697373696F6E2C4142532C5B4EAF
:100790002F415D004F646F6D657465722C456E6707
:1007A000696E652053706565642C4F696C2C436FCE
:1007B0006F6C616E7400496D6D6F62696C697A650A
:1007C000722C5B4E2F415D2C5B4E2F415D2C5B4E9E
:1007D0002F415D00496E737472756D656E742C45A2
:1007E0006E67696E6520636F6E74726F6C2C456DF9
:1007F000657267656E63792C5472616E73706F6E8B
:10080000646572005661726961626C6520636F6431
:10081000652C4B6579207374617475732C46697807
:10082000656420636F64652C496D6D6F62696C69E6
:100830007A6572005374617274696E672C456E67D5
:10084000696E65202845434D292C4B657920636FDF
:100850006E646974696F6E2C4E756D626572206F7F
:100860006600436F6F6C616E742054656D702C4F21
:10087000696C206C6576656C2C4F696C2C5B4E2F17
:10088000415D004F646F6D657465722C4675656CD3
:10089000206C766C2C4675656C53656E642C5441E7
:1008A0006D6269656E740053706565642C456E6792
:1008B000696E652053706565642C4F696C20707299
:1008C0006573737572652C54696D6500636F756E21
:1008D000743D004552524F523A206D617820736545
:1008E0006E736F727320657863656465640045524A
:1008F000524F523A20696E76616C696420616E7362
:10090000776572002D2D2D2D2D2D72656164426C41
:100910006F636B2000000000001800001800001832
:1009200000001F00001800001800001F0000180041
:10093000001800001F000018000018000018000038
:100940001800E3BDC73E3C7C001800E3C383366655
:10095000EE1C3C3800000000000000000000000019
:10096000001800007E00093C900718E01E18781F50
:1009700018F81399C801DB8020FF04307E0C7FFF3C
:10098000FE7FFFFE307E0C20FF0401DB801399C840
:100990001F18F81E18780718E0093C90007E000028
:1009A000180000000000000003FFFFE0000000004E
:1009B00000000000000000001FFFFFFC000000001E
:1009C0000000000000000000FFFFFFFF80000000AB
:1009D0000000000000000003FFFFFFFFE000000038
:1009E00001F800000000000FFFFFFFFFF800000704
:1009F000C1F800000000003FFFE3F0FFFE00000729
:100A0000F9F800000000007FFE01E01FFF00000673
:100A10007860003C000001FFF000C007FFC0000C40
:100A20001FFE03FE000003FF80000000FFE0000F38
:100A30001FFF3FE6000007FE000000003FF0000738
:100A4000F803FFC000000FFC000000000FF80000DA
:100A50007801E38000001FF00000000003FC0000AC
:100A60003800070400003FE00000000001FE000025
:100A700038000E0400007FC00000000000FF0000EE
:100A800038000C0E0000FFC000000000007F800056
:100A900038001C0E0001FFC000000000003FC00035
:100AA000380038040003FFC000000000001FE00011
:100AB0003FFFF0000003FC0000000000000FE0001A
:100AC0003FFFE0000007F80000000000000FF0000A
:100AD000000000000007F00000000000000FF00020
:100AE00000000000000FE00000000000000FF00018
:100AF00000000000001FE0000000000000000000F7
:100B000000000000001FC000000000000000000006
:100B100000000000003F8000000000000000000016
:100B200000000000003F8000000000000000000006
:100B300000000000003F0000000000000000000076
:100B400000000000007F0000000000000000000026
:100B500000000000007F0000000000000000000016
:100B600000000000007E0000000000000000000007
:100B70000000000000FE0000000000000000000077
:100B80000000000000FE0000000000000000000067
:100B90000000000000FC0000000000000000000059
:100BA0000000000000FC0000000000000000000049
:100BB0000000000000FC0000000000000000000039
:100BC0000000000000FC0000000000000000000029
:100BD0000000000000F8000000000000000000001D
:100BE0000000000000F8000000000000000000000D
:100BF0000000000000F800000000000000000000FD
:100C00000000000000FC00000000000000000000E8
:100C10000000000000FE00000000000000000000D6
:100C20000000000000FF00000000000000000000C5
:100C30000000000000FF00000000000000000000B5
:100C40000000000000FE00000000000000000000A6
:100C50000000000000FC0000000000000000000098
:100C60000000000000F8000000000000000000008C
:100C70000000000000F8000000000000000000007C
:100C80000000000000F8000000000000000000006C
:100C90000000000000FC0000000000000000000058
:100CA0000000000000FC0000000000000000000048
:100CB0000000000000FC0000000000000000000038
:100CC00000000000007C00000000000000000000A8
:100CD00000000000007E0000000000000000000096
:100CE00000000000007E0000000000000000000086
:100CF00000000000003E00000000000000000000B6
:100D000000000000003F00000000000000000000A4
:100D100000000000003F0000000000000000000094
:100D200000000000001F00000000000000000000A4
:100D300000000000001F8000000000000000000014
:100D400000000000000F8000000000000000000014
:100D5000000000000007C0000000000000000000CC
:100D6000000000000007E00000000000000000009C
:100D7000000000000003FE00000000000000000072
:100D8000000000000003FE00000000000000000062
:100D9000000000000001FE00000000000000000054
:100DA0000000000000200020646174613D00494E95
:100DB0003A20737A3D004552524F523A2074696D81
:100DC000656F7574004552524F523A20696E7661D4
:100DD0006C696420626C6F636B436F756E746572CF
:100DE0000020626C6F636B436F756E7465723D00BB
:100DF0002D2D2D4B57505265636569766520737AAA
:100E00003D004552524F523A20696E76616C6964DA
:100E100020636F6D706C656D656E74004F55543A4C
:100E20000020626C6F636B436F756E7465723D007A
:100E30002D2D2D4B575053656E6420737A3D004520
:100E400052524F523A206F62645265616420746955
:100E50006D656F75740000000000230026002900F6
:100E600000000000250028002B00040404040404F2
:100E70000404020202020202030303030303010249
:100E80000408102040800102040810200102040818
:100E900010204B5750206372656174656400003BFD
:100EA00036FDF51E000000002A3A001FFB1E001050
:100EB00010201A050E04201C381E781E780FF0072B
:100EC000E0E3C7FFFFFFFFF3CF07E00FF01E781E40
:100ED000781C38042018194B280800003800003806
:100EE00000003800003800003800003800003800EA
:100EF000003800003800003800003800FFFFFFFF16
:100F0000FFFFFFFFFF003800003800003800003806
:100F100000003800003800003800003800003800B9
:100F2000003800003800080A0A0C02FB1F1F3E3E72
:100F30003C7C7878F0F00A050A0E0208FFC0FFC07A
:100F4000FFC0FFC0FFC00505050C0400F8F8F8F865
:100F5000F80D20401102FE00780078007800F000C3
:100F6000F000F001E001E001E003C003C003C003B2
:100F7000C00780078007800F000F000F000E001EC3
:100F8000001E001E003C003C003C00780078007809
:100F9000007800F000F000141E5A17010103FC0055
:100FA0000FFF001FFF803F0F803E07C07C03C07C07
:100FB00003E07C03E07C03E0F801F0F801F0F801C5
:100FC000F0F801F0F801F0F801F0F801F0F801F0A4
:100FD000F801F0F801F0F801F0F801F07C03E07C92
:100FE00003E07C03E07C03E03E07C03F0F801FFF6F
:100FF000800FFF0003FC000C1E3C17040001F003EF
:10100000F00FF03FF0FFF0FFF0FDF0F9F0E1F081BC
:10101000F001F001F001F001F001F001F001F00148
:10102000F001F001F001F001F001F001F001F00138
:10103000F001F001F001F001F0141E5A1701010354
:10104000FF0007FF801FFFC01FFFE03FFFF03F03CF
:10105000F07E01F07E01F07C01F00001F00003F071
:101060000003F00007E0000FE0000FC0001F800049
:101070003F0000FE0001FC0003F80007F0000FE055
:10108000003F80007F0000FC0000FFFFF0FFFFF04A
:10109000FFFFF0FFFFF0FFFFF0131E5A17020107DA
:1010A000FC001FFF003FFF807FFF807FFFC0FC0F21
:1010B000C0FC07C0F807C00007C00007C0000FC091
:1010C000003FC003FF8003FE0003FC0003FF00039A
:1010D000FF80001FC00007E00007E00007E00003FA
:1010E000E0F807E0FC07E0FC07C07E0FC07FFF8050
:1010F0003FFF801FFF000FFC00151E5A1701000064
:101100003F80003F80007F8000FF8000FF8001FF64
:101110008001FF8003EF8003CF8007CF800F8F8097
:101120000F8F801F0F801F0F803E0F803E0F807C2F
:101130000F80FC0F80F80F80FFFFF8FFFFF8FFFF24
:10114000F8FFFFF8FFFFF8000F80000F80000F800E
:10115000000F80000F80000F80131E5A1702007FBF
:10116000FFC07FFFC07FFFC07FFFC07FFFC07C004C
:10117000007C00007C00007C00007C00007C000003
:101180007CFC007DFF007FFF807FFFC07F0FE07E43
:1011900007E07C03E00003E00003E00003E000035D
:1011A000E00003E0F807E0FC07E0FC0FC07FFF80F1
:1011B0007FFF803FFE000FFC00141E5A1701010341
:1011C000FE0007FF000FFF801FFFC03FFFC03F076B
:1011D000E07E03E07E03E07C00007C0000FC000079
:1011E000F80000F9FF00FBFF80FFFFC0FF0FE0FEEB
:1011F00007E0FE03F0FC03F0FC03F0FC01F0FC014F
:10120000F07C03F07C03F07E03E03F07E03FFFC08B
:101210001FFF800FFF0003FE00131E5A170200FF7E
:10122000FFE0FFFFE0FFFFE0FFFFE0FFFFE0000760
:10123000E00007E00007C0000FC0000FC0001F80E3
:10124000001F80003F00003F00003F00007E0000C4
:101250007E0000FC0000FC0001FC0001F80001F829
:101260000003F00003F00007F00007E0000FE000CB
:101270000FC0000FC0001FC000141E5A1701010745
:10128000FE001FFF803FFFC07FFFE07FFFE07E0783
:10129000E07C03E07C03E07C03E07C03E07E07E08D
:1012A0007F0FC03FFF800FFF0007FC001FFF003FC4
:1012B000FFC07F0FE07C07E0FC03F0FC03F0F801C7
:1012C000F0F803F0FC03F0FC03F0FE07F07FFFE012
:1012D0003FFFC01FFF800FFF00141E5A17010103BC
:1012E000FC000FFF001FFF803FFFC07FFFC07E0795
:1012F000E0FC07E0FC03E0FC03F0F803F0F803F087
:10130000FC03F0FC07F07C07F07F0FF03FFFF03F9D
:10131000FDF01FF9F007E1F00003F00003E0000327
:10132000E00003E07C07E07C07C07E0FC03FFF8049
:101330001FFF000FFE0007FC000514140C0500F849
:10134000F8F8F8F800000000000000000000F8F8CD
:10135000F8F8F800B218602311241FBECFEFD8E0D0
:10136000DEBFCDBF11E0A0E0B1E0EAEEFCE502C0D7
:1013700005900D92AA3CB107D9F723E0AAECB1E0A1
:1013800001C01D92A83CB207E1F719E0CBEAD9E011
:1013900004C02197FE010E94C029CA3AD107C9F7AB
:1013A0000E94D3190C94682E0C940000089580E0DC
:1013B0000895DC0114962D913C911597232B41F053
:1013C000ED91FC9181E09081992319F080E00895DE
:1013D00081E00895EF92FF920F931F93CF93DF93D5
:1013E00093E1899FE0011124C954DD4F6A8984E0AB
:1013F000689FF0011124E556FD4FE280F3800081E3
:101400001181E889F9898BE992E0099594E0899F37
:10141000F0011124E556FD4F428153812081318135
:101420008A8BC901801B910B9A012E193F093B83BE
:101430002A835B874A87F986E8861D870C8797FD94
:1014400019C041E050E0598348831F861E86FC0185
:10145000B9010E9498297D836C83CF01B9010E9454
:1014600098299F838E83DF91CF911F910F91FF90D9
:10147000EF9008954FEF5FEF59834883EE27FF27E2
:10148000E81BF90B41E050E0421B530B5F874E878E
:10149000DFCFEF92FF920F931F93CF93DF938C01D7
:1014A00083E1689FF0011124E556FD4F86A57F0179
:1014B0009CE2E90EF11CEF01AE96D701ED91FC9193
:1014C000682F8BE992E00995B4E08B9FF00111241D
:1014D000E556FD4F228133812017310711F48883AF
:1014E000ECCFDF91CF911F910F91FF90EF90089576
:1014F000FC01538D448D252F30E0842F90E0821B1A
:10150000930B541710F0CF96089501970895FC019E
:10151000918D828D981761F0A28DAE0FBF2FB11DF6
:101520005D968C91928D9F5F9F73928F90E008954E
:101530008FEF9FEF0895FC01918D828D981731F008
:10154000828DE80FF11D858D90E008958FEF9FEF5C
:101550000895FC01918D228D892F90E0805C9F4F32
:10156000821B91098F7399270895FC01A48DA80F00
:10157000B92FB11DA35ABF4F2C91848D90E00196D5
:101580008F739927848FA689B7892C93A089B189F5
:101590008C91837080648C93938D848D981306C096
:1015A0000288F389E02D80818F7D80830895EF92FA
:1015B000FF920F931F93CF93DF93EC0181E0888F0D
:1015C0009B8D8C8D98131AC0E889F989808185FFDD
:1015D00015C09FB7F894EE89FF896083E889F9897F
:1015E00080818370806480839FBF81E090E0DF9181
:1015F000CF911F910F91FF90EF900895F62E0B8DD4
:1016000010E00F5F1F4F0F731127E02E8C8D8E118E
:101610000CC00FB607FCFACFE889F989808185FFF5
:10162000F5CFCE010E94B50AF1CFEB8DEC0FFD2F67
:10163000F11DE35AFF4FF0829FB7F8940B8FEA89B0
:10164000FB8980818062CFCF0F931F93CF93DF936D
:101650008C01D0E0C0E0F801EC0FFD1F649166231F
:1016600041F08DED92E00E94D70A892B11F021966E
:10167000F2CFCE01DF91CF911F910F910895CF93BB
:10168000DF93EC01888D8823B9F0AA89BB89E889AA
:10169000F9898C9185FD03C0808186FD0DC00FB650
:1016A00007FCF7CF8C9185FFF2CF808185FFEDCFCE
:1016B000CE010E94B50AE9CFDF91CF9108958DED5B
:1016C00092E00E94A90A21E0892B09F420E0822FF0
:1016D000089580E090E0892B29F00E945F0B811132
:1016E0000C94000008956F5FFC01808D681708F06E
:1016F00060E0862F08956150FC01808D681710F01E
:101700006FEF680F862F08950895AF92BF92CF9222
:10171000DF92EF92FF920F931F93CF93DF936C01B1
:101720007B018B01040F151FEB015E01AE18BF0892
:10173000C017D10759F06991D601ED91FC91019044
:10174000F081E02DC6010995892B79F7C501DF915C
:10175000CF911F910F91FF90EF90DF90CF90BF90AE
:10176000AF90089590E0FC01E453FE4F2491FC01FA
:10177000E258F14F3491FC01E659F14FE491EE2328
:10178000C9F0222339F0233001F1A8F4213019F1F6
:10179000223029F1F0E0EE0FFF1FE05AF14FA59142
:1017A000B4918FB7F894EC91611126C030953E2327
:1017B0003C938FBF08952730A9F02830C9F024301A
:1017C00049F7809180008F7D03C0809180008F77E2
:1017D00080938000DFCF84B58F7784BDDBCF84B565
:1017E0008F7DFBCF8091B0008F778093B000D2CFF8
:1017F0008091B0008F7DF9CF3E2BDACF3FB7F894C0
:1018000080918F0290919002A0919102B0919202EA
:1018100026B5A89B05C02F3F19F00196A11DB11D4B
:101820003FBFBA2FA92F982F8827BC01CD01620F87
:10183000711D811D911D42E0660F771F881F991F42
:101840004A95D1F708958F929F92AF92BF92CF920F
:10185000DF92EF92FF924B015C010E94FE0B6B0145
:101860007C010E94FE0B6C197D098E099F09683E60
:10187000734081059105A8F321E0821A9108A1081F
:10188000B10888EEC80E83E0D81EE11CF11C81145B
:101890009104A104B10429F7FF90EF90DF90CF905D
:1018A000BF90AF909F908F9008952FB7F89460915C
:1018B0008B0270918C0280918D0290918E022FBFCD
:1018C0000895FC0120853185828593852817390785
:1018D0002CF54485558584819581480F591F55877E
:1018E00044878685978566817781860F971F9787BE
:1018F00086871816190664F460817181460F571F98
:101900005587448742815381841B950B978786872F
:101910002F5F3F4F3187208781E0089580E0089551
:10192000DC011696ED91FC91179712968C91481B4D
:10193000477081E090E001C0880F4A95EAF7E60F12
:10194000F11D3081222319F0832B80830895809527
:101950008323FBCFFB014181DC0112962C9112976E
:10196000421768F013962C911397241740F060816A
:1019700015962C91621718F424810C94900C0895FC
:10198000FC0180819281980F92832181921760F4EB
:1019900094819F5F94839381890F821710F08FEF5A
:1019A000820F838381E0089580E00895FC01128214
:1019B00080818150838314820895DB01ED91FC9135
:1019C00009940F931F93CF93DF931F92CDB7DEB788
:1019D0000091800310918103E091AF03F091B00377
:1019E00082E0099530E020E04AE0B8018EE793E01C
:1019F0000E94DD0C182FE091AF03F091B00383E05B
:101A00000995E091AF03F091B00380E009951123AF
:101A1000B9F160918003709181039E012F5F3F4F68
:101A200046E48EE793E00E94DD0C898180937E037B
:101A300060918003709181039E012F5F3F4F47E4C7
:101A40008EE793E00E94DD0C898180937F03609193
:101A500080037091810330E020E048E48EE793E05A
:101A60000E94DD0C80938903609180037091810353
:101A700021EB33E047E18EE793E00E94DD0C11E0BB
:101A8000812F0F90DF91CF911F910F9108950F93A8
:101A90001F93CF93DF938C01CAE7D3E0EDA9FEA992
:101AA00082E00995EDA9FEA981E0099530E020E0EA
:101AB00044E1B8018EE793E00E94DD0C21EB33E0B6
:101AC00047E1B8018EE793E00E94DD0CEDA9FEA985
:101AD00080E0DF91CF911F910F9109940F931F9395
:101AE000CF93E0918C03F0918D03309719F08EE73E
:101AF00093E009950091800310918103E091AF0379
:101B0000F091B00382E00995E091AF03F091B0034A
:101B100081E0099530E020E045E1B8018EE793E0EF
:101B20000E94DD0CC82F882341F021EB33E047E110
:101B3000B8018EE793E00E94DD0CE091AF03F091D5
:101B4000B00380E009958C2FCF911F910F910895DC
:101B50000B96FC01849108950A96FC0184910895E6
:101B6000FC01849108950E94B00D882321F08230F9
:101B700011F083E0089586E00895FC01E60FF11D61
:101B8000849190E0982F88273196E4918E0F911DD3
:101B9000089568E00C94BD0D66E00C94BD0D2EE92F
:101BA0003FE0009709F40895F9013197F1F70197A3
:101BB000F8CFCF93DF9300D0CDB7DEB720ED37E07D
:101BC0003A8329839091BC00982311F081E00FC0E3
:101BD00029813A81232B81F480919A0281FDF6CFED
:101BE0008091990281110DC091E0909399020F901C
:101BF0000F90DF91CF91089529813A8121503109C9
:101C0000DFCF80E0F4CF84EA8093BC0061E080E81D
:101C10000E94D90D811102C080E008958091B90021
:101C2000887F883051F0803141F080919902811194
:101C3000F3CF82E080939902EFCF88E78093BB00D7
:101C400084E88093BC0062E080E80E94D90D88237C
:101C500019F380919A0281FD05C08091B900887FB7
:101C6000883119F781E0089584E98093BC0064E02D
:101C700080E10C94D90D8093BB0084E88093BC0074
:101C800063E080E80E94D90D8823A1F080919A0238
:101C900081FD0DC08091B900887F883241F080912C
:101CA0009902811106C092E090939902089581E013
:101CB000089580E0089510929902089580939A0201
:101CC0001092B90084FF05C08CE08093B8000C949A
:101CD0005B0E88E4FACFCF93DF93FC0123A5222388
:101CE00089F0EC010E94030E811104C080E0DF91B5
:101CF000CF9108958EA1811107C00E943B0E8823C9
:101D0000A9F31BA681E0F3CF80E4F7CF0F931F93D5
:101D1000CF93DF93C62FD42F8901633001F138F4BC
:101D2000613099F0623009F449C0C1E012C06630F8
:101D300029F1673091F16530C1F70E946B0E811176
:101D400017C00E94340EC0E004C0FC0186A50E94AA
:101D50005E0E8C2FDF91CF911F910F910895FC01A2
:101D600016A221E023A74111E0CF0E94340EDDCF5F
:101D70008D2F0E943B0E8111D8CFE3CF0E946B0EB6
:101D80008823F9F2DD2389F2F80181918F010E9405
:101D90003B0E8823B1F2D150F5CF0E946B0E882301
:101DA00081F2DD2311F2F80184910E943B0EC82FCD
:101DB000882379F20F5F1F4FD150F3CFFC0146A368
:101DC00021E023A7B2CFDB011496ED91FC9130E026
:101DD00020E065E00994DB011496ED91FC9130E080
:101DE00020E062E00994DB011496ED91FC9130E073
:101DF00020E063E00994CF92DF92EF92FF920F937D
:101E00001F93CF93DF938C017B016A0180E0F60181
:101E1000C491811110C081E0CF3F49F04C2FB70130
:101E2000C8010E94E30E882309F444C080E0BFEF9C
:101E3000CB1ADB0AECCF4FEFCF3F89F3CE3FD9F17E
:101E4000C03FA0F7C03E38F04C2F4F70B701C8011B
:101E50000E94EB0EEBCFC03D38F04C2F4F70B70116
:101E6000C8010E94F30EE2CFC03CF8F0D7011496EF
:101E7000ED91FC9130E020E040E064E0C80109957C
:101E8000C295C07FCE5FD0E0CE010E94CF0DD701BA
:101E90001496ED91FC9130E020E041E064E0C8014F
:101EA0000995CE010E94CF0DC1CFC7FDBFCF8C2FAA
:101EB00090E0F8CF80E0DF91CF911F910F91FF90DC
:101EC000EF90DF90CF900895AF92BF92CF92DF92C4
:101ED000FF920F931F93CF93DF936C018B01F42E2E
:101EE000E90180E1481709F47EC0841778F1AAE07F
:101EF0004A1709F461C0BFE04B1709F47FC0F8012D
:101F000002811381F2E3FF1609F4DDC0FF1508F426
:101F10008EC085E1F81609F4DBC0A7E1FA1609F4D2
:101F2000ECC0B4E1FB1265C0D8011696ED91FC91AE
:101F3000179715968C918E0F9F2F911D11928E17CA
:101F40009F07E1F7C8010E94D60C53C0E1E14E178C
:101F500009F451C0F5E14F13D2CFFB01A280B38049
:101F600044E951E0C6010E94FB0ED50114964C9144
:101F7000406BB801C6010E94E30E41E0B801C60102
:101F80000E94EB0EF50126813781D8011496ED9160
:101F9000FC91D50115964C9166E0C6010995811119
:101FA0001CC080E0DF91CF911F910F91FF90DF90D7
:101FB000CF90BF90AF900895DB011496ED91FC9106
:101FC00030E020E042E061E0C60109954CE951E0D3
:101FD000B801C6010E94FB0E92CF40E0B801C601D5
:101FE0000E94F30E8CCF4BE851E0B801C6010E946D
:101FF000FB0E81E0D7CF40E851E0F7CF41E0C601CA
:102000000E94F30E40E0B801C6010E94EB0E41E8C9
:10201000B801C6010E94E30E4881B801C6010E94C2
:10202000E30E40E0B801C6010E94F30EE2CFE6E401
:10203000FE1609F46CC0F7E4FF1609F46DC08BE3DB
:10204000F812D7CF99818B8138E0390F813031F088
:10205000833011F0392F02C0392F985021E0D80178
:1020600013964C91491708F420E041E0391708F025
:1020700040E091E0F8015281351708F490E0322FEA
:10208000342B932319F4242309F4B3CFFA80D12CF1
:10209000C12C843048F490E0FC01E95DFE4FC08023
:1020A0008D5D9E4FDC01DC90F7FE04C0BE01C801CF
:1020B0000E94AA0C88818C0D888389818D0D89836B
:1020C000FF0C91F796CFBE01C8010E94AA0C91CFD8
:1020D000C8010E94C00C882309F463CFD80116966A
:1020E000ED91FC91179715968C918E0F9F2F911D56
:1020F00011928E179F07E1F77CCF1882F801828139
:102100008983858181508A8383818B8372CFD801B3
:1021100015968C9188836DCFF8018181FBCF0F9349
:10212000FC010150040F84A996A9941788F00817A0
:1021300010F4041778F42150260F83A995A9961757
:1021400058F0281760F481E0261720F40F910895C5
:10215000081778F780E0FACF2817A8F7FBCF81E0BF
:10216000F5CFEF92FF920F931F93CF93DF93F82E4B
:10217000162FC42F01E0242F462F682F8EE793E0FF
:102180000E948F10882309F44EC0DC2F0F2D0C0FF6
:10219000EE24EA9414C060918003709181038093CF
:1021A0009A0310939B0310929D03E0929C032AE9EB
:1021B00033E04BE38EE793E00E94DD0CD850802F94
:1021C0008D1BD83040F78C2F887F8F0D9C2F9695D4
:1021D0009695969528EF929FC00D1124CC2319F166
:1021E00097E0C927609180037091810380939A03DF
:1021F00010939B0310929D03CF5FC7708FEF90E009
:1022000001C0880FCA95EAF780939C032AE933E05E
:102210004BE38EE793E0DF91CF911F910F91FF90F9
:10222000EF900C94DD0CDF91CF911F910F91FF90F7
:10223000EF9008958F929F92AF92BF92CF92DF92CC
:10224000EF92FF920F931F93CF93DF93A82EC62F89
:10225000B42ED22F7801242F220F220F220F0D2F00
:10226000462F682F8EE793E00E948F10DC0F8B2C97
:10227000912C81112EC0DF91CF911F910F91FF9072
:10228000EF90DF90CF90BF90AF909F908F90089588
:10229000F80184916091800370918103D0929A0338
:1022A000C0939B0310929D0380939C032AE933E023
:1022B0004BE38EE793E00E94DD0C0F5F1F4FCA9443
:1022C000F8E0DF0EC110E4CFE80CF91CCF5FDC179B
:1022D00091F2CB2CDA2C8701DBCF3F924F925F92A9
:1022E0006F927F928F929F92AF92BF92CF92DF9226
:1022F000EF92FF920F931F93CF93DF93EC01162F72
:10230000DCAC5BAC5C0124E0A20EB11CE98DFA8D63
:10231000C5010995982EE884F984C7010E94B00D83
:10232000082F888599850E94B30D782E88248A9479
:10233000013011F48FE0882E888599850E94AC0DBC
:10234000082F888599850E94A80DC82E88859985B3
:102350000E94C90D113670F0009761F0E80EF91E69
:1023600001E6C116B8F41C8A1F8A188E1D8A1E8ABF
:1023700080E05BC0888599850E94CC0D113430F0D7
:10238000009721F0E80EF91E01E4EBCF81E1E80EA1
:10239000F11CE7CFC01638F3872D90E0F7012491A8
:1023A0002F3F39F4FFEFEF1AFF0AC016E1F20F5F7B
:1023B000F5CF101368C0888599850E94B00D9701EC
:1023C0002F5F3F4FF701882319F0823009F044C096
:1023D00084918F8BF9012491288FF7013396E49132
:1023E000EC8BF7013496E491ED8BF7013596E4918F
:1023F000EE8BE114F10409F4BBCF888599850E9426
:10240000B30D782ECF88388C8D89580E1D2D131959
:102410008E89181B190D032D2C2D412F652DC501FB
:102420000E948F10811138C08C899BAD890F8BAFB2
:1024300081E090E0DF91CF911F910F91FF90EF909D
:10244000DF90CF90BF90AF909F908F907F906F90D4
:102450005F904F903F9008958491982F9F70925075
:102460009E8B82958F708D8BF9012491822F8F70B6
:10247000888F22952F702F8BF7013296E491E29589
:10248000EF70EC8BB6CF3296E491E821E80FF92F8C
:10249000F11DEE0EFF1E89CFE70CF11C07E00C0DBD
:1024A000069506950695310E4E01F0E28F0E911CB1
:1024B000602E712C131509F4B7CF452C670112C09B
:1024C000F60184916E817F8148A219A31BA28AA381
:1024D00094014BE3C5010E94DD0CFFEFCF1ADF0A28
:1024E00028E0420E8C2D8E19801750F3E60CF71C55
:1024F0001F5FE0CFDC015196ED91FC9152979081E6
:1025000050968C918095892380830895209195021F
:10251000309196022817390781F4909193028091A7
:102520009402981751F0E0919302F0E0E65BFD4FC2
:102530008081082E000C990B08958FEF9FEF08956E
:1025400020919502309196022817390739F48FB7F8
:10255000F89410929402109293028FBF08952091E4
:102560009502309196022817390771F480919402F0
:102570002091930290E0805C9F4F821B910960E460
:1025800070E00E949829089590E080E008952091DD
:1025900095023091960228173907B9F49091930269
:1025A00080919402981789F0E0919302F0E0E65B45
:1025B000FD4F80812091930230E02F5F3F4F2F73BA
:1025C00033272093930290E008958FEF9FEF0895B3
:1025D00020E001972FEF8F3F9207D9F7089590E001
:1025E00080E00895DF92EF92FF920F931F93CF93B5
:1025F000DF93EC01898D9A8D892B71F481E090E055
:102600009B838A8390E080E0DF91CF911F910F91AF
:10261000FF90EF90DF900895162FDFB6F8948B8D22
:1026200081FD29C0CE010E947A12898D9A8D05966E
:102630000E94E8128B8D98E0E92EF12C01E081FFD9
:1026400028C0812F8023F1F0CE010E947A12898D5B
:102650009A8D0E94E812000F81E0E81AF10889F7CC
:10266000CE010E947A12DFBE898D9A8D0E94E812F7
:1026700081E090E0C9CFE989FA8980819889892B26
:102680008083D3CFE989FA8980819889892B8083D7
:10269000DECF812F8023B1F0E989FA898081988982
:1026A000892B8083898D9A8D0E94E812000F81E02A
:1026B000E81AF10871F7E989FA8980819889892BEC
:1026C0008083D1CFCE010E947A12ECCFFB01019022
:1026D0000020E9F73197AF01461B570BDC01ED9164
:1026E000FC910280F381E02D09946BE571E08DEDA2
:1026F00092E00C946613CF93DF930E94240BEC01BD
:102700000E9475138C0F9D1FDF91CF910895CF927A
:10271000DF92EF92FF920E94550C6B017C0128EE34
:10272000C20E23E0D21EE11CF11C8091C0039091E7
:10273000C103DC01ED91FC910084F185E02D099548
:10274000892BC1F40E94550C6C157D058E059F05E3
:1027500060F38FE39EE00E947B131092BC03809194
:10276000BE038F5F8093BE0380E0FF90EF90DF9009
:10277000CF9008958091C0039091C103DC01ED9149
:10278000FC910284F385E02D0995EFCFCF93DF9381
:10279000FC0144815581608171818DED92E00E9440
:1027A000850BEC010E9475138C0F9D1FDF91CF915B
:1027B00008958F929F92AF92BF92EF92FF920F93E4
:1027C0001F93CF93DF93CDB7DEB7A1970FB6F894E1
:1027D000DEBF0FBECDBF7C01FA01CB0119A22230B2
:1027E00008F42AE08E010F5D1F4F822E912CB12C30
:1027F000A12CBF01A50194010E94C427F901CA01BF
:102800006A300CF5605DD8016E938D01232B242B6B
:10281000252B79F790E080E0109721F0BD01C701EA
:102820000E946613A1960FB6F894DEBF0FBECDBF0F
:10283000DF91CF911F910F91FF90EF90BF90AF90DC
:102840009F908F900895695CDECFCF92DF92EF92D8
:10285000FF920F931F93CF93DF936B01770FEE08D7
:10286000FF08F7FE1FC0EC01E881F9810190F081BB
:10287000E02D6DE209958C0144275527BA014C19CA
:102880005D096E097F092AE0CE010E94D913800FED
:10289000911FDF91CF911F910F91FF90EF90DF90EB
:1028A000CF9008952AE0B701A601DF91CF911F9143
:1028B0000F91FF90EF90DF90CF900C94D913CF93AE
:1028C000DF93BC018DED92E00E942514EC010E9483
:1028D00075138C0F9D1FDF91CF910895CF93DF93D8
:1028E000482F50E070E060E02AE08DED92E00E9419
:1028F000D913EC010E9475138C0F9D1FDF91CF91AE
:102900000895CF93DF93BC018DED92E00E94661392
:10291000EC010E9475138C0F9D1FDF91CF910895DC
:102920004F925F926F927F928F929F92AF92BF92DF
:10293000CF92DF92EF92FF920F931F93CF93DF938B
:102940007C016B01EA014880598080EF9DE00E9484
:10295000240B688179818DED92E00E94251481EE2F
:102960009DE00E94240B8091BD030E946E1488811B
:102970009981C816D906B4F48EE591E00E948114BD
:1029800080E0DF91CF911F910F91FF90EF90DF904A
:10299000CF90BF90AF909F908F907F906F905F90FF
:1029A0004F9008950E94550C4B015C0120ED820E62
:1029B00027E0921EA11CB11C10E000E03701600E60
:1029C000711E8091C0039091C103DC01ED91FC91D7
:1029D0000084F185E02D0995892B09F48AC00E94B5
:1029E0008713682FF30181933F010F5F1F4F888189
:1029F0009981892B09F05FC00130110509F05BC096
:102A0000862F90E0019699838883C816D9060CF426
:102A1000B3CF4114510409F465C088819981081726
:102A2000190761F48091C0039091C1036095DC01A6
:102A3000ED91FC910190F081E02D09950E94550CDB
:102A40004B015C01B8EE8B0EB3E09B1EA11CB11CC8
:102A5000B8CF0115110509F4B1CF8881998180178C
:102A6000910709F0ABCF8EEA9DE00E94240B6881AC
:102A700079818DED92E00E94251487EA9DE00E9405
:102A8000240B870128813981C8018E199F0982177B
:102A900093070CF042C0F80141918F0150E070E0C3
:102AA00060E020E18DED92E00E94D91385EA9DE07F
:102AB0000E94240BE7CF4114510409F0AECF02303D
:102AC000110581F48091BD03681761F085EC9DE0EC
:102AD0000E947B131092BC038091BF038F5F809391
:102AE000BF034ECF88819981081719070CF49ACF3C
:102AF000A5CF0E94550C681579058A059B0508F439
:102B0000A8CF86EB9DE00E947B131092BC038091BE
:102B1000BE038F5F8093BE0333CF0E9475138091F5
:102B2000BD038F5F8093BD0381E02BCFAF92BF9237
:102B3000CF92DF92EF92FF920F931F93CF93DF9389
:102B40008C017B0180E39EE00E94240BB7018DED98
:102B500092E00E94251481E29EE00E94240B809165
:102B6000BD030E946E148CE19EE00E94240BE801DC
:102B70006801CE0CDF1CD8014D918D0150E070E052
:102B800060E020E18DED92E00E94D91368EC71E0E5
:102B90008DED92E00E946613C016D10661F70E9487
:102BA000751310E000E05701B1E0AB1AB108D990FD
:102BB0008091C0039091C103DC01ED91FC910190E3
:102BC000F081E02D6D2D09950A151B05E4F40E9496
:102BD0008713D0948D15B9F082E09EE00E947B139C
:102BE0001092BC038091BF038F5F8093BF0380E08E
:102BF000DF91CF911F910F91FF90EF90DF90CF90D9
:102C0000BF90AF9008950F5F1F4FE016F10679F661
:102C10008091BD038F5F8093BD0381E0E9CFCF93A7
:102C2000DF93EC0188819981009711F00E94622A5C
:102C3000198218821D821C821B821A82DF91CF9119
:102C40000895FC0180819181009711F00C94622A13
:102C50000895CF93DF93EC0142960E942116CE0196
:102C60000C960E942116CE010696DF91CF910C940E
:102C700021160F931F93CF93DF93EC0188819981E5
:102C8000009759F02A813B812617370730F081E001
:102C9000DF91CF911F910F9108958B016F5F7F4F4F
:102CA0000E94EB2A009759F0998388831B830A833B
:102CB0002C813D81232B59F7FC011082E8CF80E065
:102CC000E7CFEF92FF920F931F93CF93DF9361159E
:102CD000710541F480E0DF91CF911F910F91FF903A
:102CE000EF90089541155105B1F07B01EC010C8185
:102CF0001D81040F151FB8010E943916882351F356
:102D0000288139818C819D81B701820F931F0E9498
:102D1000B12B1D830C8381E0DECFEF92FF920F93E6
:102D20001F93CF93DF93EC018B01CB010E94E7232C
:102D30007C01BC01CE010E94391681110BC0CE016D
:102D40000E940F16CE01DF91CF911F910F91FF903E
:102D5000EF900895FD82EC82B801888199810E94EC
:102D6000E023F0CFEF92FF920F931F93CF93DF9367
:102D7000EC017B018A01BA010E94391681110BC056
:102D8000CE010E940F16CE01DF91CF911F910F91BE
:102D9000FF90EF9008951D830C83B701888199817E
:102DA0000E94B12BF0CFCF93DF93EC01FB0186178C
:102DB000970749F0608171816115710541F0448187
:102DC00055810E94B216CE01DF91CF9108950E94E5
:102DD0000F16F9CFFC011182108213821282158224
:102DE00014826115710551F0FB0101900020E9F793
:102DF0003197AF01461B570B0C94B2160895CF9331
:102E0000DF93EC0162E871E006960E94EA1662E840
:102E100071E0CE010C960E94EA1662E871E0CE01E4
:102E20004296DF91CF910C94EA161F920F920FB643
:102E30000F9211242F933F934F935F936F937F9340
:102E40008F939F93AF93BF93EF93FF938DED92E09A
:102E50000E94B50AFF91EF91BF91AF919F918F9121
:102E60007F916F915F914F913F912F910F900FBE86
:102E70000F901F9018951F920F920FB60F9211246A
:102E80002F938F939F93EF93FF93E091ED02F09137
:102E9000EE028081E091F302F091F40282FD1BC00A
:102EA00090818091F6028F5F8F732091F7028217D5
:102EB00041F0E091F602F0E0E352FD4F958F8093F0
:102EC000F602FF91EF919F918F912F910F900FBE7E
:102ED0000F901F9018958081F4CF1F920F920FB61C
:102EE0000F9211242F933F938F939F93AF93BF9390
:102EF00080918B0290918C02A0918D02B0918E02F4
:102F000030918A0223E0230F2D3758F50196A11D39
:102F1000B11D20938A0280938B0290938C02A09320
:102F20008D02B0938E0280918F0290919002A091B9
:102F30009102B09192020196A11DB11D80938F0262
:102F400090939002A0939102B0939202BF91AF919F
:102F50009F918F913F912F910F900FBE0F901F90D7
:102F6000189526E8230F0296A11DB11DD2CF1F92FE
:102F70000F920FB60F921124EF92FF920F931F93AF
:102F80002F933F934F935F936F937F938F939F9371
:102F9000AF93BF93CF93DF93EF93FF93C0919502CD
:102FA000D0919602209749F0EE85FF859D858B8D07
:102FB00081FF1AC080818923D1F4FF91EF91DF91C5
:102FC000CF91BF91AF919F918F917F916F915F91C1
:102FD0004F913F912F911F910F91FF90EF900F9084
:102FE0000FBE0F901F9018958081892331F78B8930
:102FF0009C890E94E81288E0E82EF12C10E001E0A4
:103000008D899E890E94E812EE85FF8580819D85CD
:10301000892339F1102B000F81E0E81AF10881F7BC
:103020008F89988D0E94E8128B8D81FD109580917B
:1030300094022091930290E001968F7399272817AC
:10304000190699F0E0919402F0E0E65BFD4F1083E1
:103050008091940290E001968F7399278093940257
:10306000ACCF802F80951823D6CF8B8D81608B8F2E
:10307000A4CF1F920F920FB60F9211242F933F935C
:103080004F935F936F937F938F939F93AF93BF9370
:10309000EF93FF930E94B717FF91EF91BF91AF910C
:1030A0009F918F917F916F915F914F913F912F9160
:1030B0000F900FBE0F901F9018951F920F920FB692
:1030C0000F9211242F933F934F935F936F937F93AE
:1030D0008F939F93AF93BF93EF93FF930E94B71784
:1030E000FF91EF91BF91AF919F918F917F916F91E0
:1030F0005F914F913F912F910F900FBE0F901F90B6
:103100001895CF93DF9390E0FC01E258F14F2491A2
:103110008659914FFC0184918823D1F090E0880F6B
:10312000991FFC01EE53FE4FA591B491FC01E05AAA
:10313000F14FC591D49161110EC09FB7F8948C9155
:10314000E22FE0958E238C932881E223E8839FBFB2
:10315000DF91CF9108958FB7F894EC91E22BEC9327
:103160008FBFF6CFCF92DF92EF92FF92CF93DF9394
:103170001092E0021092DF0298EEC92E93E0D92E51
:10318000E12CF12CC092E102D092E202E092E30243
:10319000F092E4028FE291E09093DE028093DD02F0
:1031A00085EC90E09093EA028093E90284EC90E051
:1031B0009093EC028093EB0280EC90E09093EE020F
:1031C0008093ED0281EC90E09093F0028093EF0207
:1031D00082EC90E09093F2028093F10286EC90E012
:1031E0009093F4028093F3021092F6021092F70289
:1031F0001092F8021092F9021092BC031092BD03D3
:103200001092BE031092BF0382E08093BA0383E062
:103210008093BB0361E00E94811861E083E00E941B
:10322000B20B8CE190E00E94C629EC011B821A824D
:10323000CC82DD82EE82FF828DE491E099838883E7
:103240001C8A1B8A1E8A1D8A188E1F8A1A8E198E46
:103250008B8D8E7F8D7F8B8F61E083E00E94811844
:1032600061E083E00E94B20BE1E8FEE0E491E88BCC
:10327000EDE6FEE0E491F0E0EE0FFF1FE05AF14FC3
:10328000859194919A8B898B60E082E00E948118ED
:103290008B8D81FD04C061E082E00E94B20B82E070
:1032A0008C87E0E8FEE0E491ED87ECE6FEE0E49157
:1032B000F0E0EE0FFF1FEA5AF14F859194919F873E
:1032C0008E87D093C103C093C00382E99EE00E9421
:1032D0007B1365E771E080E191E00E94EA1680E1EE
:1032E00091E09093B9038093B80310927D031092FC
:1032F0007C0381E491E090937B0380937A031092A6
:10330000B5031092B6031092B70310928303109284
:10331000820310928503109284031092870381E048
:103320008093860382E28093880310928D0310922B
:103330008C03E1EAF3E08FEA93E02FEF21938E17FD
:103340009F07E1F781E080939E0327ED39E03093FA
:103350009403209393038093950310929603109205
:10336000970380E4809398031092990386ED99E087
:103370009093B0038093AF038AE091E09093810330
:10338000809380031092AC030E94E10C81E491E0F1
:1033900090937B0380937A03DF91CF91FF90EF901E
:1033A000DF90CF900895CF93DF93CDB7DEB7C25DA6
:1033B000D1090FB6F894DEBF0FBECDBF789484B5A7
:1033C000826084BD84B5816084BD85B5826085BD21
:1033D00085B5816085BD80916E00816080936E00AF
:1033E00010928100809181008260809381008091A1
:1033F0008100816080938100809180008160809352
:1034000080008091B10084608093B1008091B00011
:1034100081608093B00080917A00846080937A000C
:1034200080917A00826080937A0080917A00816036
:1034300080937A0080917A00806880937A0010925D
:10344000C10068EC70E080E090E00E94230C81E015
:1034500080939E039091B703911104C08093B703AA
:103460000E94E10C80918003909181030E94470D9E
:1034700000EE11E020E440E160E080E00E941A11DB
:103480000E946E0D8111F4CF21E630E02C0F3D1F1C
:103490002E5E3F4FC553DF4F39832883CB5CD0402E
:1034A000B090BC03B11075C48AE297E00E94240B6F
:1034B0002AE047E150E060E070E08DED92E00E948C
:1034C000D91383E297E00E94240B80EA98E20E94DD
:1034D0005F141092BD030091C0031091C103D80185
:1034E0005A961C921E92599758961C921E92579764
:1034F00056961C921E92559790E080E0FC01EA5986
:10350000F94F4591559165917491403A5842610542
:10351000710509F02AC3FC01E659F94F2591349150
:10352000F801348B238BFC01E459F94F2591349138
:10353000D80156963C932E935597FC01E259F94FCA
:1035400025913491F801308F278BFC01E059F94F18
:10355000859194915A969C938E935997D80157963A
:103560008D919C915897892BC1F11C968C91863135
:1035700070F590916800883008F400C321E08E3027
:1035800008F420E081E001C0880F2A95EAF7892B32
:1035900080936800F8019485EDE6F0E0983050F0F3
:1035A000EBE6F0E09E3030F0ECE6F0E0963110F023
:1035B000F0E0E0E04081292F30E0983008F0E0C2F0
:1035C00081E001C0880F9A95EAF7842B8083D801A7
:1035D00059968D919C910E94E8128091950290914C
:1035E00096020817190779F0F801838D8E7F838F73
:1035F0008FB7F8941092940210929302109396024F
:10360000009395028FBF83E596E00E947B139E0195
:103610002F5F3F4F7901690110E000E0712C6624B3
:103620006394522EAF2C77E1872E912C8FE496E095
:103630000E94240BB8018DED92E00E9425148DE4C8
:1036400096E00E94240B472D50E070E060E02AE0F5
:103650008DED92E00E94D91383E496E001151105E7
:1036600051F08BE396E00830110529F0093011057F
:1036700021F482E396E00E94240B0E947513D60188
:103680007D926D01C80101968A30910509F085C2CD
:1036900010E000E0F70191917F018091BB0361E0B0
:1036A000913009F060E00E94B20B0F5F1F4F68EC91
:1036B00070E080E090E00E94230C0A30110551F781
:1036C0008091C0039091C103DC01ED91FC910680D3
:1036D000F781E02D099583E090E0C356DF4F998391
:1036E0008883CD59D040AE0143565F4F63E070E010
:1036F000CE018F569F4F0E949014882309F1CF5618
:10370000DF4F8881C159D040853579F4CE56DF4FDF
:103710008881C259D040813041F4CD56DF4F988125
:10372000C359D0409A3809F44DC28EE097E00E9408
:103730007B131092BC038091BF038F5F8093BF0304
:103740008091B703811105C0B1E0B093B7030E9427
:10375000E10C80918003909181030E94470D37ED29
:10376000232E39E0332E80918203909183038E596A
:103770009E4089F12EE93EE030938303209382033B
:1037800080919503811121C7E3EAFEE08491809343
:103790009603EAEAFEE08491809397038091960372
:1037A000082E000C990B20919703821B910927FD8D
:1037B000939520919803203441F0829FC0011124F9
:1037C00026E0969587952A95E1F7809399033092A4
:1037D000940320929303F1E0F0939E0305EA19E02D
:1037E00020E440E160E080E00E941A1120919702FD
:1037F00030919802032E000C440B550B215F3F4F74
:103800004F4F5F4FAAEAB0E00E94822727E830E0DE
:1038100040E050E00E946327CA01B901625D71096E
:10382000810991090E946A266B017C0120E030E049
:1038300044E352E40E94F52720E030E044EB53E4F7
:103840000E9467282BED3FE049EC50E40E94A5263A
:103850004B015C010E946228C954DF4F6883798361
:103860008A839B83C75BD040C501B4010E9447296E
:103870004B015C0120E030E044E352E4C701B601B3
:103880000E94F62720E030E044EB53E40E946728D2
:103890002BED3FE049EC50E40E94A5262B013C01B2
:1038A0000E946228C554DF4F688379838A839B8393
:1038B000CB5BD040C301B2010E944729C154DF4F06
:1038C000688379838A839B83CF5BD04020E030E09C
:1038D00044EB53E4C701B6010E9467282BED3FE09B
:1038E00049EC50E40E94A5266B017C010E946228ED
:1038F0002B013C01C701B6010E9447296B017C01E5
:1039000020E030E040E850E4C501B4010E94A52663
:1039100020E030E044E352E40E94F6270E94D928D8
:103920004B018B0120E030E040E850E4C954DF4F08
:10393000688179818A819B81C75BD0400E94A526DE
:1039400020E030E044E352E40E94F6270E94D928A8
:1039500070939C0260939B0290929E0280929D02C3
:1039600020E030E044E052E4C301B2010E94A52609
:1039700020E030E044E352E40E94F6270E94D92878
:103980007093A00260939F0220E030E044E052E494
:10399000C701B6010E94A52620E030E044E352E4CE
:1039A0000E94F6270E94D9287093A2026093A10278
:1039B00020E030E040E850E4C554DF4F6881798171
:1039C0008A819B81CB5BD0400E94A52620E030E01D
:1039D00044E352E40E94F6270E94D9287093A4027F
:1039E0006093A30220E030E040E850E4C154DF4F90
:1039F000688179818A819B81CF5BD0400E94A52616
:103A000020E030E044E352E40E94F6270E94D928E7
:103A10007093A6026093A50283E08093B30223E72C
:103A20003BE03093DB022093DA028BE79BE090933C
:103A3000C8028093C7021092C902EBE9F2E020E0CD
:103A400031E086819781081719070CF48C018815DD
:103A5000990514F4232F4C013496313009F4C7C56D
:103A60002093C902081919091093B6020093B502F0
:103A7000012B09F4CAC52093DC0261E0C4010E9455
:103A8000490A60E0C4010E94490A31E03093B4025F
:103A9000A091C90244E0A49FD0011124A556BD4FB6
:103AA000E091DC0284E0E89FF0011124E556FD4F2F
:103AB0002D913C91808191812817390709F499C58E
:103AC0001092B4020091B5021091B60280E00E94FB
:103AD000EA0981E00E94EA098091B402882341F05A
:103AE00087EB92E00E94610C8AEC92E00E94610CEC
:103AF0006091D2027091D30280917F0386171706DE
:103B000001F1F8F02091C3023091C402E091D60295
:103B1000F091D7022E173F070CF0B6C5F7FD11C084
:103B2000A0917E03B0E02A173B075CF437FD20E04C
:103B3000822FAE17BF070CF4FD014E2F481B0E94C9
:103B4000B11087EB92E00E94610C882309F4B0C5A4
:103B50008AEC92E00E94610C882309F4ADC5015003
:103B600011091016110624F250C50C96883A9105D9
:103B700009F0C4CCF801148A138AF0CC84E007CD94
:103B80009E3040F42850310981E001C0880F2A9509
:103B9000EAF71BCD2E503109F7CF762C88309105EE
:103BA00079F0772473948930910551F0940102C023
:103BB000359527950A95E2F7422F4170742E6426B9
:103BC0008C0134CD8093BC038AE196E00E947B1384
:103BD00062E871E0CE0187589F4F0E94EA168E017D
:103BE0000F5B1F4F6DE7862E61E0962EC956DF4FA3
:103BF00019821882C759D040AE0149565F4F60E420
:103C000070E0852D9A2D0E949014F82E8823C9F01B
:103C1000C956DF4F88819981C759D040892B89F0D7
:103C20008B81893009F4A8C0863FD1F081E096E00D
:103C30000E947B131092BC038091BF038F5F80931F
:103C4000BF03CE0187589F4F0E942116BB2009F465
:103C500077CD6CE271E080E090E00E94230C70CDA3
:103C6000652D7A2DCE018F599F4F0E94EA16C956B5
:103C7000DF4FC880D980C759D040B2E0CB1AD108F5
:103C800043E0642E712CE3E0CE16D10420F036011F
:103C900053E0C52ED12C62E871E0C8010E94EA16FB
:103CA000A796EEACFFACA797CE14DF0448F56E14D0
:103CB0007F0408F47301A396EEADFFADA397EE0D5C
:103CC000FF1D70801082A3966EAD7FADA3976C0D23
:103CD0007D1D6115710509F445C0FB0101900020AF
:103CE000E9F73197AF01461B570BC8010E94B21686
:103CF000A3968EAD9FADA397E80EF91ED7017C92D7
:103D0000F8014481558160817181CE0187589F4FB0
:103D10000E946116C8010E94211680EE95E00E9463
:103D2000240B8091BD030E946E148091BD031F92ED
:103D30008F939F928F921F930F930E94C72B64E0E3
:103D400070E0C8010E9496150F900F900F900F9091
:103D50000F900F9081110AC0CE018F599F4F0E9482
:103D600021166FCFC8010E940F16C2CFCE018F5906
:103D70009F4F0E9421163ACF63E871E08DED92E0EB
:103D80000E946613CE0187589F4F0E94C613BF2C16
:103D900058CF2DB73EB7C353DF4F39832883CD5C4F
:103DA000D0408DB79EB7805691090FB6F8949EBF4C
:103DB0000FBE8DBFADB7BEB711966D017D010DB7BA
:103DC0001EB70F591F4FC7010E94FF16B8E1EB0E37
:103DD000F11C0E151F05B9F7E091B803F091B90376
:103DE000A185B2850D911C91B680EDB7FEB7C15388
:103DF000DF4FF983E883CF5CD040CE0187589F4FD7
:103E00000E94FF1684E099E00E94240BC8010E94E2
:103E10005F141F930F938091BD031F928F938AE8C5
:103E200091E09F938F939E012F5F3F4F79013F93C6
:103E30002F930E94C72B65E070E0C7010E94961582
:103E4000ADB7BEB718960FB6F894BEBF0FBEADBFE4
:103E50008823E9F0CB54DF4F19821882C55BD0402C
:103E6000AE014B545F4F60E470E0C7010E949014B4
:103E70008B81873E09F465C08EEE98E00E947B132B
:103E80001092BC038091BF038F5F8093BF03CE016C
:103E900087589F4F0E942916C153DF4F888199810F
:103EA000CF5CD0400FB6F8949EBF0FBE8DBF860189
:103EB000045F1F4FC8010E94D909811135C02396A4
:103EC0001FAE1EAE239725961FAE1EAE25972796D2
:103ED0001FAE1EAE2797B601645C7F4FCE018F5B8D
:103EE0009F4F0E94D3161A8219821C821B821E8247
:103EF0001D82B801CE0101960E94D31623968EAD85
:103F00009FAD2397009709F450C30E94B923709383
:103F1000980260939702CE0101960E942116CE016D
:103F20008F5B9F4F0E9421168601005A1F4FC016BB
:103F3000D10609F43EC308511109C8010E9429168F
:103F4000F6CFCB54DF4F88819981C55BD040049771
:103F500063E070E00E9498294B01653071051CF008
:103F600083ED98E08BCF62E871E0CE0181559F4FE1
:103F70000E94EA16E7E1BE124CC164E078E0073126
:103F80001105D1F00CF024C163E878E0023011058E
:103F900099F044F467EA78E00130110569F069E5C9
:103FA00077E00AC062E678E00330110529F064E3A7
:103FB00078E00631110599F7CE0181559F4F0E9497
:103FC0008D16CD54DF4F08811981C35BD040C801E5
:103FD00001962DB73EB7281B390B0FB6F8943EBF9C
:103FE0000FBE2DBFADB7BEB711965D01892B29F06D
:103FF0000115110509F018C11C9269EB71E0C501AA
:104000000E94F0238C018CEC98E00E94240BC401E8
:104010000E945F14312C212CCD53DF4F198218825E
:10402000C35CD0405E01B1E4AB0EB11CE1E6F0E050
:10403000EC0FFD1F3C96C753DF4FF983E883C95C43
:10404000D040281439040CF0AAC2FFEF2F1A3F0AFF
:10405000D7011396BC91C954DF4FB883C75BD040DA
:10406000F701F481C554DF4FF883CB5BD040D70113
:104070001596BC91C154DF4FB883CF5BD040B801D7
:10408000CE0187559F4F0E94EA16CE018F599F4F50
:104090000E94FF1682E597E00E94240BC954DF4F6F
:1040A000E881C75BD0404E2F50E070E060E02AE02E
:1040B0008DED92E00E94D9138DE497E00E94240BCD
:1040C000C554DF4FF881CB5BD0404F2F50E070E0FC
:1040D00060E02AE08DED92E00E94D91388E497E039
:1040E0000E94240BC154DF4F2881CF5BD040422E69
:1040F000512C712C612C2AE0B301A2018DED92E0CC
:104100000E94D91380E497E00E94240B62E871E0DA
:10411000CE018D559F4F0E94EA1662E871E0CE01F4
:1041200083569F4F0E94EA16C954DF4F9881C75BA0
:10413000D040892F90E0CF52DF4F99838883C15DB3
:10414000D040C554DF4FB881CB5BD040AB2FB0E03F
:10415000CB53DF4FB983A883C55CD040C154DF4F38
:10416000F881CF5BD040EF2FF0E0C953DF4FF983E8
:10417000E883C75CD040C954DF4F2881C75BD0407B
:10418000253009F460C0253209F4D5C11F92C1540D
:10419000DF4FB881CF5BD040BF931F92C554DF4F34
:1041A000E881CB5BD040EF932BEB31E03F932F9333
:1041B000BF92AF920E94C72B8DB79EB708960FB6DD
:1041C000F8949EBF0FBE8DBF412C512C320165C0AB
:1041D00064E977E00233110509F4EECE6CF464ED86
:1041E00077E00831110509F4E7CE66EB77E0093195
:1041F000110509F4E1CED3CE66E777E00D3711055E
:1042000009F4DACE6AE577E00E37110509F4D4CE69
:10421000C6CEF1E068E577E0BF1609F4CDCE82E9BD
:1042200091E00E948114CDCEC155DF4F6881798124
:10423000CF5AD040A801CD010E94B82BF501E00F64
:10424000F11F1082DACEC953DF4F88819981C75C94
:10425000D04084569109CB53DF4FA881B981C55C0A
:10426000D0408A9FB0018B9F700D9A9F700D1124D2
:10427000072E000C880B990B0E946A262DEC3CEC53
:104280004CEC5DE30E94A5262B013C016EE377E038
:10429000CE0183569F4F0E948D16CF55DF4F8881E8
:1042A0009981C15AD040892B09F461C0850122E06F
:1042B00044E0C301B2010E949B23B501CE018F5699
:1042C0009F4F0E94EA16C956DF4F19821882C759BC
:1042D000D040C756DF4F19821882C959D040C55601
:1042E000DF4F19821882CB59D040BE016F567F4FE5
:1042F000CE0189569F4F0E94D31641E050E068ECF2
:1043000071E0CE0189569F4F0E946116811105C050
:10431000CE0189569F4F0E940F16CF55DF4F48811F
:104320005981C15AD040C356DF4F68817981CD5938
:10433000D040CE0189569F4F0E946116811105C061
:10434000CE0189569F4F0E940F16BE0169567F4FBE
:10435000CE018D559F4F0E94D316CE0189569F4F97
:104360000E942116CE018F569F4F0E942116CE012A
:104370008D559F4F0E94C613CF52DF4FA881B98140
:10438000C15DD040A396BFAFAEAFA397CB53DF4F75
:10439000E881F981C55CD040A596FFAFEEAFA59747
:1043A000C953DF4F28813981C75CD040A7963FAF02
:1043B0002EAFA797B501CE018F569F4F0E94EA16E8
:1043C000AF968EAD9FADAF97009709F4BDC0CF56A5
:1043D000DF4F68817981C159D0406115710509F4B9
:1043E000B1C0E1964EAD5FADE197CB56DF4F28816E
:1043F0003981C559D0404217530708F4A3C00E9421
:10440000B12BCB56DF4F88819981C559D040E396B7
:104410009FAF8EAFE397CB56DF4F19821882C559F5
:10442000D040CE018F569F4F0E942116BE01635689
:104430007F4FC553DF4F88819981CB5CD0400E946C
:10444000D316CE0183569F4F0E942116CE018D5563
:104450009F4F0E942116CE0187559F4F0E94D90978
:10446000811154C0C753DF4F88819981C95CD04006
:104470000E94D90981114AC0A8E1CD53DF4F88813C
:104480009981C35CD040A89F8001A99F100D112481
:104490000C0D1D1DA3968EAD9FADA397F8019183C2
:1044A0008083A5968EAD9FADA59793838283A796B3
:1044B0008EAD9FADA79795838483BE0167557F4FCF
:1044C000C80106960E94D316C753DF4F68817981D1
:1044D000C95CD040C8010C960E94D316C553DF4F6B
:1044E00068817981CB5CD040C80142960E94D31686
:1044F000CD53DF4F28813981C35CD0402F5F3F4FC0
:10450000CD53DF4F39832883C35CD04069EB71E022
:1045100090E080E00E94F0238C01CE018F599F4FE4
:104520000E942916CE0187559F4F0E94211633E025
:10453000E30EF11C86CDC301B2010E9468262B0157
:104540003C01ABCE0E94622ACF56DF4F8881998111
:10455000C159D040AF969FAF8EAFAF97CD56DF4FCA
:1045600088819981C359D040E1969FAF8EAFE19782
:10457000CB56DF4F88819981C559D040E3969FAFD4
:104580008EAFE397CF56DF4F19821882C159D040C2
:10459000CD56DF4F19821882C359D0403CCFCE018F
:1045A00081559F4F0E94211672CC60E070E0CB01D4
:1045B000AECCC353DF4FA881B981CD5CD0400FB6DC
:1045C000F894BEBF0FBEADBFBBC8813041F4EDEA69
:1045D000FEE0849180939603EEEAFEE0DCC8EBEA0D
:1045E000FEE0849180939603ECEAFEE0D4C832E0CA
:1045F00028CA8091B5029091B60201979093B602B5
:104600008093B502892B09F05DCA8CE38093B503D2
:1046100080E48093B60360919702709198028AE7D4
:1046200093E00E9425148091970290919802C79779
:1046300044F40DE519E028E143E061E188E20E94DD
:104640001A1180919702909198028936910544F051
:1046500005E119E028E143E06FE08FE00E941A11C4
:104660000E946E0D81117FC880E090E0892B11F4CB
:104670000C94501A0E945F0B882311F40C94501A6A
:104680000E9400000C94501A37FD5BCA40917E03D3
:1046900050E0E417F5070CF054CAF7FF02C030E011
:1046A00020E0241735070CF4A9014E1B8E2F47CAB2
:1046B00080E00E94EA0945CA81E00E94EA0948CAEE
:1046C00080E191E00E942116E091C003F091C103C6
:1046D000309781F18DE491E09183808394859631C8
:1046E000C0F4ADE6B0E0983030F0ABE6B0E09E301C
:1046F00010F0ACE6B0E08C91492F50E0983060F4B7
:1047000021E030E001C0220F9A95EAF72095282396
:104710002C93CF010C94622A9E3048F448505109E2
:1047200021E030E001C0220F4A95EAF7EFCF4E506A
:104730005109F6CF0895EF920F931F93CF93DF9314
:10474000E80134E047FD34E1042E000C550B57FF1F
:1047500003C0519541955109E32E022F242FAE013C
:104760000E943124CE01DF91CF911F910F91EF90E4
:1047700008951F93FC0199278827BC01E8941191A3
:104780001032E9F3193010F01E30C8F31B3251F02B
:104790001D3249F4689406C00E941C24610F711DEB
:1047A000811D911D119110531A30B0F33EF4909574
:1047B0008095709561957F4F8F4F9F4F1F91089502
:1047C000FB01DC0105900D920020E1F70895FC014A
:1047D00005900020E9F7809590958E0F9F1F089512
:1047E00042EC53E00E94F5230895FA01A191B081B3
:1047F000009719F41097E1F0CD01DC01CD010D9087
:10480000002011F4C00113C0FB012191222319F0F3
:104810002015D9F7F3CFFB012191201519F41E9231
:10482000119606C02223C1F70D900020A1F7D001F8
:10483000FA01A193B0830895592F482F372F262FBF
:10484000660F771F881F991F660F771F881F991F94
:10485000620F731F841F951F660F771F881F991F94
:104860000895A9E0B0E0E7E3F4E20C9493276A012D
:10487000F22EB02E102FFBE3AF2EA01608F41BE390
:104880001F5F012F27E0AE014F5F5F4F0E94902511
:10489000BC018981982F9970913009F43FC09BE247
:1048A000E1FC04C09E2D9170E0FC3AC05E2D507179
:1048B000E82FE87083FF46C084E0911101C083E0D7
:1048C000EF2DE81B8F1508F0E0E0D6018E2F20E2D7
:1048D000552351F1992329F0D6019C93C6010196E5
:1048E0006C0196012D5F3F4FE2FE24C08EE4D6019D
:1048F0008C9391E411969C93119712968C93D90105
:104900008E2F90E281111BC0E20FF32FF11D108258
:104910008EEF9FEF2996ECE00C94AF279DE2C6CF77
:1049200090E2C4CF2D9381508111FCCFCE0ED11CCB
:10493000E0E0D0CF8EE6D6018C9391E6DBCF9D935D
:104940008150E0CF482F447082FF3DC084E0911138
:1049500001C083E08F1510F4EF2DE81BD6018E2FD8
:1049600020E2552309F1992329F0D6019C93C60131
:1049700001966C0196012D5F3F4FE2FE1BC089E45A
:10498000D6018C938EE411968C93119786E412963F
:104990008C93D9018E2F90E2882309F4B5CF9D9393
:1049A0008150FACF2D9381508111FCCFCE0ED11CB6
:1049B000E0E0D9CF89E6D6018C938EE611968C93F0
:1049C000119786E6E4CF9B0177FF02C030E020E03C
:1049D000A1E0B0E0911102C0B0E0A0E0F901319691
:1049E000AE0FBF1F8B2C912CBB2009F461C054016A
:1049F000EFEFAE1ABE0AAA0DBB1DFA161B0619F080
:104A000014F04F2D4A1B511188C0E3FC59C07601A8
:104A1000A42FB0E2A1114FC0C40ED11C992309F4F8
:104A20005BC040E0D6011196F60190836D015523DD
:104A300009F448C0012F060F9A81582F507184FF46
:104A400003C0913309F4015010160CF047C009302F
:104A500008F008E0EEE2FE2E5B01A01AB108850125
:104A60009194819491082F3F320729F4D601FC924A
:104A7000F60131966F016217730794F1021713075D
:104A80007CF5DB01A21BB30BAA24A394B12CAC0EC2
:104A9000BD1EAA0DBB1D11968C9121503109D60166
:104AA000119628153905F4F0F60180836D01DBCFEE
:104AB000B12CA12CA0CFF701B1937F01A150AACFB7
:104AC0009111B0CFD601942F50E302C05D93915065
:104AD0009111FCCFC40ED11C40E0ACCF01E0BACFA5
:104AE00080E3DBCF6217730731F4963388F4953394
:104AF00011F4552369F0F6018083FD01842F90E2C3
:104B0000811108C0A40FB11D1C9290E080E002CF7B
:104B100081E3F1CF91938150F3CF911183CF8ACF6D
:104B2000283008F027E03327DA01990F311D87FD7F
:104B3000916000966105710539F432602E5F3D93F6
:104B400030E32A95E1F708959F3F30F080387105F2
:104B5000610509F03C5F3C5F3D93913008F080684F
:104B6000911DDF93CF931F930F93FF92EF92192F15
:104B7000987F9695E92F96959695E90FFF27E05235
:104B8000FF4F99273327EE24FF24A701E701059063
:104B90000894079428F4360FE71EF81E491F511D8C
:104BA000660F771F881F991F0694A1F70590079439
:104BB00028F4E70EF81E491F561FC11D770F881FE6
:104BC000991F661F0694A1F70590079428F4F80E24
:104BD000491F561FC71FD11D880F991F661F771FBA
:104BE0000694A1F70590079420F4490F561FC71F9C
:104BF000D81F990F661F771F881F0694A9F7849105
:104C00001095177041F0D695C79557954795F7942D
:104C1000E7941A95C1F7E6E8F0E0689415901591CD
:104C200035916591959105907FE27395E118F10AB0
:104C3000430B560BC90BD009C0F7E10CF11E431F03
:104C4000561FC91FD01D7EF4703311F48A95E6CF2C
:104C5000E894015030F0080F0AF40027021708F416
:104C6000202F2395022F7A3328F079E37D932A951C
:104C7000E9F710C07D932A9589F606949795679574
:104C8000379517951794E118F10A430B560BC90B8A
:104C9000D00998F023957E9173957A3308F070E3EC
:104CA0007C932013B8F77E9170617D9330F08395EB
:104CB00071E37D9370E32A95E1F71124EF90FF9063
:104CC0000F911F91CF91DF91992787FD90950895BE
:104CD000E89409C097FB3EF4909580957095619596
:104CE0007F4F8F4F9F4F9923A9F0F92F96E9BB274C
:104CF0009395F695879577956795B795F111F8CFC8
:104D0000FAF4BB0F11F460FF1BC06F5F7F4F8F4F32
:104D10009F4F16C0882311F096E911C0772321F028
:104D20009EE8872F762F05C0662371F096E8862FC0
:104D300070E060E02AF09A95660F771F881FDAF717
:104D4000880F9695879597F908950E94B8260C9438
:104D500029270E941B2738F00E94222720F0952344
:104D600011F00C9412270C94182711240C945D2731
:104D70000E943A2770F3959FC1F3950F50E0551F9D
:104D8000629FF001729FBB27F00DB11D639FAA27A0
:104D9000F00DB11DAA1F649F6627B00DA11D661FEF
:104DA000829F2227B00DA11D621F739FB00DA11D10
:104DB000621F839FA00D611D221F749F3327A00DCA
:104DC000611D231F849F600D211D822F762F6A2F66
:104DD00011249F5750409AF0F1F088234AF0EE0FCB
:104DE000FF1FBB1F661F771F881F91505040A9F7F8
:104DF0009E3F510580F00C9412270C945D275F3F75
:104E0000E4F3983ED4F3869577956795B795F79533
:104E1000E7959F5FC1F7FE2B880F911D96958795AB
:104E200097F9089597F99F6780E870E060E008952A
:104E30009FEF80EC089500240A94161617061806B2
:104E40000906089500240A9412161306140605068E
:104E50000895092E0394000C11F4882352F0BB0F1F
:104E600040F4BF2B11F460FF04C06F5F7F4F8F4F82
:104E70009F4F089557FD9058440F551F59F05F3FBD
:104E800071F04795880F97FB991F61F09F3F79F06C
:104E900087950895121613061406551FF2CF4695EE
:104EA000F1DF08C0161617061806991FF1CF869570
:104EB0007105610508940895E894BB276627772754
:104EC000CB0197F90895052E97FB1EF400940E94DC
:104ED0007A2757FD07D00E94C42707FC03D04EF461
:104EE0000C947A2750954095309521953F4F4F4F20
:104EF0005F4F089590958095709561957F4F8F4F86
:104F00009F4F08950E94E627A59F900DB49F900D96
:104F1000A49F800D911D112408952F923F924F92CE
:104F20005F926F927F928F929F92AF92BF92CF9239
:104F3000DF92EF92FF920F931F93CF93DF93CDB742
:104F4000DEB7CA1BDB0B0FB6F894DEBF0FBECDBFBA
:104F500009942A88398848885F846E847D848C848B
:104F60009B84AA84B984C884DF80EE80FD800C8194
:104F70001B81AA81B981CE0FD11D0FB6F894DEBF77
:104F80000FBECDBFED010895A1E21A2EAA1BBB1BD7
:104F9000FD010DC0AA1FBB1FEE1FFF1FA217B30705
:104FA000E407F50720F0A21BB30BE40BF50B661F1B
:104FB000771F881F991F1A9469F7609570958095DF
:104FC00090959B01AC01BD01CF010895A29FB00156
:104FD000B39FC001A39F700D811D1124911DB29F2D
:104FE000700D811D1124911D08955058BB27AA27CB
:104FF0000E940D280C9429270E941B2738F00E943C
:10500000222720F039F49F3F19F426F40C94182736
:105010000EF4E095E7FB0C941227E92F0E943A2743
:1050200058F3BA17620773078407950720F079F4DD
:10503000A6F50C945C270EF4E0950B2EBA2FA02D4C
:105040000B01B90190010C01CA01A0011124FF2735
:10505000591B99F0593F50F4503E68F11A16F04030
:10506000A22F232F342F4427585FF3CF469537952F
:105070002795A795F0405395C9F77EF41F16BA0BF4
:10508000620B730B840BBAF09150A1F0FF0FBB1FA2
:10509000661F771F881FC2F70EC0BA0F621F731FEB
:1050A000841F48F4879577956795B795F7959E3F48
:1050B00008F0B0CF9395880F08F09927EE0F9795D9
:1050C000879508950E940A29E3950C9433290E943C
:1050D0007B280C9429270E94222758F00E941B2726
:1050E00040F029F45F3F29F00C94122751110C94E1
:1050F0005D270C9418270E943A2768F39923B1F38F
:10510000552391F3951B550BBB27AA2762177307ED
:10511000840738F09F5F5F4F220F331F441FAA1F81
:10512000A9F335D00E2E3AF0E0E832D0915050403D
:10513000E695001CCAF72BD0FE2F29D0660F771FEB
:10514000881FBB1F261737074807AB07B0E809F0D1
:10515000BB0B802DBF01FF2793585F4F3AF09E3F56
:10516000510578F00C9412270C945D275F3FE4F30F
:10517000983ED4F3869577956795B795F7959F5F99
:10518000C9F7880F911D9695879597F90895E1E0E5
:10519000660F771F881FBB1F621773078407BA0744
:1051A00020F0621B730B840BBA0BEE1F88F7E0959F
:1051B00008950E94422788F09F5798F0B92F9927A9
:1051C000B751B0F0E1F0660F771F881F991F1AF0F2
:1051D000BA95C9F714C0B13091F00E945C27B1E0D4
:1051E00008950C945C27672F782F8827B85F39F0D3
:1051F000B93FCCF3869577956795B395D9F73EF48B
:1052000090958095709561957F4F8F4F9F4F089532
:105210000C9418270E944227D8F3E894E0E0BB27BB
:105220009F57F0F02AED3FE049EC06C0EE0FBB0FB0
:10523000661F771F881F28F0B23A6207730784073A
:1052400028F0B25A620B730B840BE3959A9572F7B0
:10525000803830F49A95BB0F661F771F881FD2F7EE
:1052600090480C945129EF93E0FF07C0A2EA2AED81
:105270003FE049EC5FEB0E940D280E9429270F9028
:10528000039401FC9058E8E6F0E00C945D299F93AC
:105290000E940A290F9007FCEE5F0C9433299F3F70
:1052A00031F0915020F4879577956795B795880FE1
:1052B000911D9695879597F908959F938F937F9366
:1052C0006F93FF93EF939B01AC010E94A526EF9192
:1052D000FF910E9471292F913F914F915F910C9402
:1052E000A526DF93CF931F930F93FF92EF92DF9248
:1052F0007B018C01689406C0DA2EEF010E94B8266B
:10530000FE01E894A5912591359145915591A6F31B
:10531000EF010E940D28FE019701A801DA9469F7B8
:10532000DF90EF90FF900F911F91CF91DF91089543
:1053300097FB072E16F4009407D077FD09D00E9442
:10534000AC2907FC05D03EF4909581959F4F0895B8
:10535000709561957F4F0895AA1BBB1B51E107C053
:10536000AA1FBB1FA617B70710F0A61BB70B881FF5
:10537000991F5A95A9F780959095BC01CD01089584
:10538000EE0FFF1F0590F491E02D09940F931F93EA
:10539000CF93DF938230910510F482E090E0E091AA
:1053A000C603F091C70330E020E0B0E0A0E0309702
:1053B00099F42115310509F44AC0281B390B243012
:1053C0003105D8F58A819B816115710589F1FB0151
:1053D00093838283FE0111C0408151810281138138
:1053E00048175907E0F04817590799F4109761F0EA
:1053F00012960C93129713961C933296CF01DF915D
:10540000CF911F910F9108950093C6031093C70386
:10541000F4CF2115310551F04217530738F0A90197
:10542000DB019A01BD01DF01F801C1CFEF01F9CF26
:105430009093C7038093C603CDCFFE01E20FF31F05
:10544000819391932250310939832883D7CF2091BA
:10545000C4033091C503232B41F420911F013091E7
:1054600020013093C5032093C40320911D01309186
:105470001E012115310541F42DB73EB740912101A0
:1054800050912201241B350BE091C403F091C50318
:10549000E217F307A0F42E1B3F0B2817390778F00B
:1054A000AC014E5F5F4F2417350748F04E0F5F1F6A
:1054B0005093C5034093C403819391939FCFF0E031
:1054C000E0E09CCFCF93DF930097E9F0FC013297A7
:1054D00013821282A091C603B091C703ED0130E0A0
:1054E00020E01097A1F420813181820F931F209139
:1054F000C4033091C5032817390709F061C0F09340
:10550000C503E093C403DF91CF910895EA01CE175C
:10551000DF07E8F54A815B819E0141155105B1F72E
:10552000E901FB83EA8349915991C40FD51FEC1718
:10553000FD0761F4808191810296840F951FE90136
:1055400099838883828193819B838A83F0E0E0E062
:1055500012968D919C9113970097B9F52D913C91DE
:105560001197CD010296820F931F2091C4033091B1
:10557000C5032817390739F6309751F51092C7033C
:105580001092C603B093C503A093C403BCCFD383CA
:10559000C28340815181840F951FC817D90761F4D8
:1055A0004E5F5F4F88819981480F591F5183408317
:1055B0008A819B81938382832115310509F0B0CFC5
:1055C000F093C703E093C6039ECFFD01DC01C0CF7B
:1055D00013821282D7CFB0E0A0E0E1EFFAE20C94A0
:1055E0008F278C01009751F4CB010E94C6298C01B2
:1055F000C801CDB7DEB7E0E10C94AB27FC01E60FA4
:10560000F71F9C0122503109E217F30708F49DC0EF
:10561000D901CD91DC911197C617D70798F0C53005
:10562000D10530F3CE0104978617970708F3C61B00
:10563000D70B2297C193D1936D937C93CF010E9496
:10564000622AD6CF5B01AC1ABD0A4C018C0E9D1E9E
:10565000A091C603B091C703512C412CF12CE12C31
:10566000109731F58091C4039091C5038815990571
:1056700009F05CC04616570608F058C080911D011D
:1056800090911E01009741F48DB79EB74091210182
:1056900050912201841B950BE817F90708F055C0BB
:1056A000F093C503E093C403F90171836083A0CF35
:1056B0008D919C91119712966C90129713967C90F5
:1056C0001397A815B90559F56C0142E0C40ED11C19
:1056D000CA14DB0420F1AC014A195B09DA01129605
:1056E000159780F06282738251834083D9016D9354
:1056F0007C93E114F10471F0D7011396FC93EE93BF
:10570000129776CF22968C0F9D1FF901918380838B
:10571000F301EFCFF093C703E093C60369CF4816B8
:10572000590608F42C017D01D3019ACFCB010E94C8
:10573000C6297C01009749F0AE01B8010E94A82B50
:10574000C8010E94622A870153CF10E000E050CFC9
:10575000FB01DC0102C001900D9241505040D8F78E
:105760000895FB01DC0101900D920020E1F70895FE
:10577000FB01DC014150504048F001900D920020A7
:10578000C9F701C01D9241505040E0F70895AEE0C6
:10579000B0E0EDECFBE20C949B270D891E8986E0BE
:1057A0008C831A8309838FEF9FE79E838D83AE01DD
:1057B000475E5F4F6F89788DCE0101960E94EA2B7C
:1057C0002F813885020F131FF80110822E96E4E016
:1057D0000C94B727ABE0B0E0E0EFFBE20C948D2730
:1057E0007C013B018A01FC0117821682838181FFC3
:1057F000C8C1CE0101965C01F7019381F30193FDCD
:10580000859193FF81913F01882309F453C185322B
:1058100039F493FD859193FF81913F01853229F4FD
:10582000B70190E00E94DA2DE7CF912C212C312C8A
:10583000FFE1F31538F08B3211F190F4803209F169
:10584000833229F137FC3CC020ED280F2A3050F577
:1058500036FE20C08AE0989E200D1124922E06C0AC
:105860008D3291F0803371F7689430F8F30193FD35
:10587000859193FF81913F018111DACF21C0689416
:1058800031F8689432F8F2CF689433F8EFCF689427
:1058900034F8ECCFEAE02E9E200D1124222E6894DD
:1058A00035F8E4CF8E3229F436FC04C1689436F81A
:1058B000DDCF8C3619F4689437F8D8CF8836B1F23A
:1058C000982F9F7D95549330E0F08336A1F1833774
:1058D000C1F1833509F063C02801F2E04F0E511C7D
:1058E000F801C080D180692D70E036FC02C06FEFF6
:1058F0007FEFC6010E94C42D4C01689437F88201E5
:105900000AC00C5F1F4FFFE3F98388248394912C16
:105910006501E89437F833FE2DC0522C81149104B0
:1059200071F5552009F468CFB70180E290E00E943C
:10593000DA2D5A94F6CFF801808189830E5F1F4FCC
:10594000E4CF2801F2E04F0E511CF801C080D18055
:10595000692D70E036FC02C06FEF7FEFC6010E9438
:10596000CF2D4C018201D5CFB70180E290E00E949B
:10597000DA2D2A942814190409F0B0F7CECFF601D5
:1059800037FC859137FE81916F01B70190E00E944D
:10599000DA2D51105A94F1E08F1A9108BFCF843656
:1059A00019F0893609F077C0F80137FE6BC06081C5
:1059B0007181828193810C5F1F4FF32DFF763F2E03
:1059C00097FF09C090958095709561957F4F8F4F97
:1059D0009F4F689437F82AE030E0A5010E940A2E14
:1059E000C82ECA188C2C432C36FE0CC0E89440F804
:1059F000C91440F434FE05C032FC03C0F32DFE7E12
:105A00004F2E892C44FE95C0FE01EC0DF11D8081C6
:105A1000803309F087C0242D297E422E842D887082
:105A2000582E43FC95C040FE8FC09C2C821418F465
:105A30002C0C922C981844FE91C0B70180E390E0A2
:105A40000E94DA2D42FE09C088E790E041FE02C0C4
:105A500088E590E0B7010E94DA2DC91408F48AC0E5
:105A6000CA94D12C9FEFC91AD90ACA0CDB1CF601C3
:105A700082916F01B70190E00E94DA2DAC14BD0451
:105A8000B1F74FCF60817181072E000C880B990B05
:105A90000E5F1F4F92CFD32CE894D4F82AE030E069
:105AA000853739F1232D297FD22E8F3601F148F425
:105AB0008835A9F0F701868197812B96E2E10C9455
:105AC000A927803749F08837A9F7D4FE02C0689427
:105AD000D2F820E130E00DC06894D4F8F6CF34FE5F
